:100000000C942A000C94AD080C9445000C94450007
:100010000C9445000C9445000C94C4080C944500C5
:100020000C9445000C9445000C9445000C9445003C
:100030000C9445000C9445000C9445000C9445002C
:100040000C9445000C9445000C9445000C9445001C
:100050000C94450011241FBECFE5D4E0DEBFCDBF18
:1000600010E0A0E6B0E0EAE7FDE102C005900D92E5
:10007000A037B107D9F713E0A0E7B0E001C01D92A7
:10008000AB3AB107E1F70C946D080C940000CF93E4
:10009000DF93CDB7DEB721970FB6F894DEBF0FBE62
:1000A000CDBF8983898180932F0080912E00882382
:1000B0000CF0FBCF21960FB6F894DEBF0FBECDBF7C
:1000C000DF91CF910895CF93DF93CDB7DEB7109234
:1000D0002F0080912E0088230CF0FBCF80912F0001
:1000E0009927DF91CF910895CF93DF93CDB7DEB7F6
:1000F000809135008D7F80933500809134008D7F15
:10010000826080933400809135008F7B806480937F
:100110003500809134008F7B8064809334009FE7AA
:1001200080913500982380E8892B809335009FE7E4
:1001300080913400982380E8892B80933400DF91EC
:10014000CF910895CF93DF93CDB7DEB7809135007F
:100150008D7F8093350086E00E94470080913500B6
:100160008D7F826080933500809135008D7F8093F4
:10017000350082E00E94470080E00E9447008091A5
:1001800075000E944700809135008D7F82608093CA
:100190003500DF91CF910895CF93DF93CDB7DEB7D0
:1001A000809135008D7F8093350083E00E94470069
:1001B00080E00E9447000E94630080937500809158
:1001C00035008D7F826080933500DF91CF91089557
:1001D000CF93DF93CDB7DEB7809131008F7D8093D1
:1001E0003100809131008F7B80933100809131000C
:1001F000877F80933100809131008F7E8093310022
:1002000080913A008F7D80933A0080913A008F7BF5
:1002100080933A009FE780913A00892380933A00C7
:10022000809132008F7D8062809332008091320015
:100230008F7B80648093320080913200877F88605A
:1002400080933200809132008F7E806180933200F3
:1002500080913B008F7D806280933B0080913B00CA
:100260008F7B806480933B009FE780913B009823C5
:1002700080E8892B80933B00DF91CF910895CF9345
:10028000DF93CDB7DEB7809137008F7E806180939A
:100290003700809138008F7E8061809338009FE71F
:1002A00080913700982380E8892B809337008091D4
:1002B00037008F7D806280933700809137008F7B7D
:1002C0008093370080912D00806580932D00809170
:1002D0002E00816080932E00DF91CF910895CF93FF
:1002E000DF93CDB7DEB721970FB6F894DEBF0FBE10
:1002F000CDBF8983809138008E7F809338008091B4
:1003000038008D7F80933800898180932F00809101
:100310002E0088230CF0FBCF809138008E7F816007
:100320008093380021960FB6F894DEBF0FBECDBF84
:10033000DF91CF910895CF93DF93CDB7DEB72197AB
:100340000FB6F894DEBF0FBECDBF89838091380011
:100350008E7F80933800809138008D7F82608093FB
:100360003800898180932F0080912E0088230CF023
:10037000FBCF809138008E7F81608093380021967A
:100380000FB6F894DEBF0FBECDBFDF91CF910895B9
:10039000CF93DF93CDB7DEB722970FB6F894DEBFC9
:1003A0000FBECDBF89838981883010F087E08983B3
:1003B0008981806B8A838A810E946F0181E090E04D
:1003C00022960FB6F894DEBF0FBECDBFDF91CF915E
:1003D0000895CF93DF93CDB7DEB723970FB6F89488
:1003E000DEBF0FBECDBF89838981863610F085E6DA
:1003F000898389818F708B83898182958F708061D9
:100400008A838B810E946F018A810E946F0181E043
:1004100090E023960FB6F894DEBF0FBECDBFDF91FC
:10042000CF910895CF93DF93CDB7DEB723970FB663
:10043000F894DEBF0FBECDBF89831A828A818830CF
:10044000A8F41B828B81863668F48A810E94C801D9
:100450008B810E94E90189810E949B018B818F5FC2
:100460008B83F0CF8A818F5F8A83E8CF23960FB684
:10047000F894DEBF0FBECDBFDF91CF910895CF932B
:10048000DF93CDB7DEB723970FB6F894DEBF0FBE6C
:10049000CDBF89836A834B838981869586958695AE
:1004A00080937000898187708093730080917000C1
:1004B0000E94C8018A810E94E9018B818823B1F1E1
:1004C00080917300282F332781E090E0AC0102C0B7
:1004D000440F551F2A95E2F780917000282F33278B
:1004E0008A819927880F991F880F991F880F991F54
:1004F000820F931FFC01E558FF4F8081842B80936E
:10050000730080917000282F33278A819927880FE4
:10051000991F880F991F880F991F820F931FFC0145
:10052000E558FF4F80917300808339C08B81882309
:10053000B1F580917300282F332781E090E002C04D
:10054000880F991F2A95E2F7482F409580917000F7
:10055000282F33278A819927880F991F880F991F81
:10056000880F991F820F931FFC01E558FF4F808170
:1005700084238093730080917000282F33278A8111
:100580009927880F991F880F991F880F991F820F2D
:10059000931FFC01E558FF4F809173008083809189
:1005A00073000E949B0123960FB6F894DEBF0FBE26
:1005B000CDBFDF91CF910895CF93DF93CDB7DEB755
:1005C00025970FB6F894DEBF0FBECDBF89836A832F
:1005D00080E18D838981282F33278D819927820F90
:1005E000931F873691050CF08FC08981282F332700
:1005F0008D819927281B390BC90199230CF484C0DC
:100600008A81282F33278D819927281B390BC9010F
:1006100099230CF479C08A81282F33278D8199275B
:10062000820F931F8F3391050CF06EC099818091DA
:100630007800981779F11B828B81823058F51C82E3
:100640008C81482F55278D81282F3327C901820F90
:10065000931F019648175907CCF499818D81981BF7
:100660008C81890F4FEF682F8B810E943F02998107
:100670008D81981B8C81980F8B81825C4FEF692F45
:100680000E943F028C818F5F8C83DACF8B818F5FDA
:100690008B83D2CF9A8180917700981779F11B8252
:1006A0008B81823058F51C828C81482F55278D8193
:1006B000282F3327C901820F931F01964817590726
:1006C000CCF49A818D81981B8C81890F4FEF6B81BF
:1006D0000E943F028B81282F2C599A818D81981B73
:1006E0008C81890F4FEF622F0E943F028C818F5FB8
:1006F0008C83DACF8B818F5F8B83D2CF898180937C
:1007000078008A818093770025960FB6F894DEBF33
:100710000FBECDBFDF91CF910895CF93DF93CDB7BB
:10072000DEB724970FB6F894DEBF0FBECDBF898326
:100730006A838981282F3327809160009927820F4F
:10074000931F843691050CF07EC18981282F3327B1
:10075000809160009927281B390BC90182309105CF
:100760000CF471C18A81282F33278091600099276A
:10077000281B390BC901181619060CF064C18A81AF
:10078000282F3327809160009927820F931F8F3382
:1007900091050CF058C1998180917800981709F45F
:1007A000A7C0998180917800891708F051C099817C
:1007B00080916000890F4FEF682F80E00E943F0218
:1007C000998180916000890F4FEF682F81E00E942E
:1007D0003F02998180916000890F4FEF682F8EE36F
:1007E0000E943F02998180916000890F4FEF682F2E
:1007F0008FE30E943F029091780080916000981BE7
:10080000892F40E0682F80E00E943F02909178009D
:1008100080916000981B892F40E0682F81E00E9442
:100820003F029091780080916000981B892F40E0F2
:10083000682F8EE30E943F029091780080916000C3
:10084000981B892F40E0682F8FE30E943F0250C021
:10085000998180916000981B892F4FEF682F80E06D
:100860000E943F02998180916000981B892F4FEF71
:10087000682F81E00E943F02998180916000981B5F
:10088000892F4FEF682F8EE30E943F02998180915C
:100890006000981B892F4FEF682F8FE30E943F0263
:1008A0009091780080916000890F40E0682F80E08F
:1008B0000E943F029091780080916000890F40E093
:1008C000682F81E00E943F02909178008091600043
:1008D000890F40E0682F8EE30E943F0290917800DC
:1008E00080916000890F40E0682F8FE30E943F02F3
:1008F0009A8180917700981709F49FC09A8180911E
:100900007700891708F04DC09091770080916000C2
:10091000890F4FEF60E00E943F0290917700809135
:100920006000890F4FEF61E00E943F0290917700D5
:1009300080916000890F4FEF64E60E943F02909122
:10094000770080916000890F4FEF65E60E943F02BB
:100950009091770080916000981B892F40E060E0C3
:100960000E943F029091770080916000981B892F30
:1009700040E061E00E943F0290917700809160002A
:10098000981B892F40E064E60E943F029091770017
:1009900080916000981B892F40E065E60E943F022D
:1009A0004CC09091770080916000981B892F4FEF89
:1009B00060E00E943F029091770080916000981B58
:1009C000892F4FEF61E00E943F0290917700809164
:1009D0006000981B892F4FEF64E60E943F029091C0
:1009E000770080916000981B892F4FEF65E60E9489
:1009F0003F029091770080916000890F40E060E0B5
:100A00000E943F029091770080916000890F40E042
:100A100061E00E943F029091770080916000890F11
:100A200040E064E60E943F02909177008091600070
:100A3000890F40E065E60E943F028981809378003B
:100A40008A818093770024960FB6F894DEBF0FBE9C
:100A5000CDBFDF91CF910895CF93DF93CDB7DEB7B0
:100A600024970FB6F894DEBF0FBECDBF89836A838B
:100A70001B828B818530D8F41C828C81853098F460
:100A800090917A008C81890F282F225090917900C3
:100A90008B81890F825040E0622F0E943F028C813F
:100AA0008F5F8C83EACF8B818F5F8B83E2CF8A81CC
:100AB00099270296873691059CF58A819927029796
:100AC000992374F189819927029799234CF189819F
:100AD000992702968F3391051CF51B828B818530F7
:100AE000C8F41C828C81853088F49A818C81890FAE
:100AF000282F225099818B81890F825041E0622FEB
:100B00000E943F028C818F5F8C83ECCF8B818F5F43
:100B10008B83E4CF8981809379008A8180937A00E6
:100B200024960FB6F894DEBF0FBECDBFDF91CF91F4
:100B30000895CF93DF93CDB7DEB722970FB6F89421
:100B4000DEBF0FBECDBF1A82198280917900853039
:100B500028F0809179008B3308F40EC090917800D2
:100B600080917A00982780916000981750F58091C5
:100B7000670081958093670080917A00853028F026
:100B800080917A00813608F40EC0909177008091B0
:100B90007900982780916000981798F480916600FA
:100BA00081958093660090917A0080916600292F4C
:100BB000280F9091790080916700890F622F0E9421
:100BC0002C0522960FB6F894DEBF0FBECDBFDF9185
:100BD000CF910895CF93DF93CDB7DEB723970FB6AC
:100BE000F894DEBF0FBECDBF89831A821B82898134
:100BF000992781709070009759F0898199278270A8
:100C00009070009719F08FEF8B8302C081E08B8387
:100C10008981992784709070009759F0898199276C
:100C200088709070009719F08FEF8A8302C081E07E
:100C30008A83909177008B81292F280F90917800DB
:100C40008A81890F622F0E948D0323960FB6F89434
:100C5000DEBF0FBECDBFDF91CF910895CF93DF935D
:100C6000CDB7DEB72D970FB6F894DEBF0FBECDBF60
:100C700019828091300099278095909580729070AC
:100C8000009719F0898183608983809130009927CA
:100C90008095909580749070009719F0898181609B
:100CA0008983809130009927809590958870907005
:100CB000009719F089818C60898380913000992791
:100CC0008095909580719070009719F0898184606B
:100CD00089838091390099278095909580729070D2
:100CE000009759F0809138008095982F98708091E6
:100CF0003800877F892B80933800809139009927AD
:100D00008095909580749070009729F0809175007F
:100D10008F5F80937500809139008095807888235B
:100D200029F0809175008150809375008981882316
:100D300019F089810E94EA0580E090E0A0EFB2E41A
:100D40008A839B83AC83BD8320E030E04AEF54E488
:100D50006A817B818C819D810E94A20ADC01CB018A
:100D600088879987AA87BB8720E030E040E85FE367
:100D7000688579858A859B850E94290C88230CF0DB
:100D800005C081E090E09F838E831AC020E03FEF92
:100D90004FE757E4688579858A859B850E94BD0B5E
:100DA00018160CF003C01F821E820AC06885798560
:100DB0008A859B850E94EE08DC01CB019F838E8390
:100DC0008E819F819D878C878C859D850197F1F70A
:100DD0009D878C8780917500809343000E94A200BC
:100DE0002D960FB6F894DEBF0FBECDBFDF91CF9129
:100DF0000895CF93DF93CDB7DEB781E080935500A0
:100E000080E480935B007894DF91CF910895CF9335
:100E1000DF93CDB7DEB72C970FB6F894DEBF0FBEC9
:100E2000CDBF809137008E7F8160809337008091A5
:100E300037008D7F826080933700809137008B7FF1
:100E4000846080933700809138008B7F80933800D6
:100E500080E090E0A0E8BFE389839A83AB83BC8302
:100E600020E030E04AEF54E469817A818B819C81F3
:100E70000E94A20ADC01CB018F839887A987BA87D9
:100E800020E030E040E85FE36F81788589859A85CE
:100E90000E94290C88230CF005C081E090E09E831D
:100EA0008D831AC020E03FEF4FE757E46F817885CC
:100EB00089859A850E94BD0B18160CF003C01E820E
:100EC0001D820AC06F81788589859A850E94EE0807
:100ED000DC01CB019E838D838D819E819C878B87D6
:100EE0008B859C850197F1F79C878B8780913800D3
:100EF0008B7F84608093380080E090E0A0EAB0E4CB
:100F00008F839887A987BA8720E030E04AEF54E4BE
:100F10006F81788589859A850E94A20ADC01CB01C0
:100F200089839A83AB83BC8320E030E040E85FE3B1
:100F300069817A818B819C810E94290C88230CF025
:100F400005C081E090E09C878B871AC020E03FEFCE
:100F50004FE757E469817A818B819C810E94BD0BA8
:100F600018160CF003C01C861B860AC069817A81A2
:100F70008B819C810E94EE08DC01CB019C878B87D2
:100F80008B859C859E838D838D819E810197F1F752
:100F90009E838D8380E40E946F0181EA0E946F012D
:100FA00080EC0E946F0184EA0E946F0186EA0E9431
:100FB0006F0180E090E0A0EFB2E48F839887A9876B
:100FC000BA8720E030E04AEF54E46F817885898564
:100FD0009A850E94A20ADC01CB0189839A83AB83A4
:100FE000BC8320E030E040E85FE369817A818B8157
:100FF0009C810E94290C88230CF005C081E090E0C0
:101000009C878B871AC020E03FEF4FE757E4698148
:101010007A818B819C810E94BD0B18160CF003C055
:101020001C861B860AC069817A818B819C810E9403
:10103000EE08DC01CB019C878B878B859C859E838A
:101040008D838D819E810197F1F79E838D8382EA46
:101050000E946F018FE20E946F0187E20E946F0180
:1010600081E80E946F0189E00E946F018AEF0E946F
:101070006F0180E90E946F018FEA0E946F0181E099
:1010800090E02C960FB6F894DEBF0FBECDBFDF9177
:10109000CF910895CF93DF93CDB7DEB78091450010
:1010A000896680934500DF91CF910895CF93DF93B8
:1010B000CDB7DEB780914E008B6080934E0080E804
:1010C0009EE390934B0080934A0080915900806189
:1010D00080935900DF91CF910895CFE5D4E0DEBF32
:1010E000CDBF80913800877F8860809338008091E1
:1010F0003700877F8860809337009FE780913100B9
:10110000982380E8892B809331009FE780913200FB
:101110008923809332000E94E8000E943F010E94D0
:10112000070780E00E9412020E9474000E94CC0017
:101130000E94F9060E944A086FE184E30E94DC02E3
:1011400064E38FE10E942C050E945608809176008E
:101150008823E1F30E942E06F9CF1F920F920FB65B
:101160000F9211248F93CF93DF93CDB7DEB7809189
:101170007600809580937600DF91CF918F910F90CC
:101180000FBE0F901F9018951F920F920FB60F92DF
:1011900011242F933F934F935F936F937F938F937C
:1011A0009F93AF93BF93EF93FF93CF93DF93CDB70D
:1011B000DEB70E949905DF91CF91FF91EF91BF912A
:1011C000AF919F918F917F916F915F914F913F91DF
:1011D0002F910F900FBE0F901F901895EF92FF92D6
:1011E0000F931F937B018C0120E030E040E05FE42F
:1011F0000E94F30B88239CF020E030E040E05FEC9D
:10120000C801B7010E943C0ADC01CB01BC01CD0141
:101210000E945F0C605070408040904804C0C8013C
:10122000B7010E945F0C1F910F91FF90EF900895FE
:10123000A0E0B0E0EEE1F9E00C94860E8C017B01B9
:101240005A01DC018C91823058F0FB019081923080
:1012500010F4A7010BC1843029F4943009F4A6C01E
:10126000A80104C19430A9F3923009F4A9C08230D6
:1012700081F3F801C280D380FB0162817381F801A0
:101280002481358146815781F7016480758086808D
:101290009780C601861B970B97FDD8C080970CF4EA
:1012A0006CC06C157D050CF0ADC06624772443013D
:1012B000F8016181F7018181681709F499C06623FB
:1012C00009F491C0621A730A840A950AA401930171
:1012D00057FDC0C0F5011182B60119012A0179013B
:1012E0008A0139014A01089461087108810891084E
:1012F000FFEF6F16FFEF7F06FFEF8F06FFE39F06FE
:10130000F0F4A8019701220F331F441F551F190144
:101310002A01B601615070406B0179018A013901DF
:101320004A01089461087108810891088FEF6816D6
:101330008FEF78068FEF88068FE3980610F383E02F
:10134000D5018C9357FC64C0F50124833583468313
:10135000578373836283A50189C06F5F7F4FD40178
:10136000C30181709070A070B07096948794779448
:101370006794682A792A8A2A9B2A6C157D056CF362
:1013800011C00894C11CD11CDA01C9018170907090
:10139000A070B0705695479537952795282B392B17
:1013A0004A2B5B2BC616D70664F382CFF8019181D6
:1013B000FB018181981709F453CF48E650E056C0ED
:1013C000823009F04DCF88E0DA01F80101900D92EA
:1013D0008A95E1F7F8018181FB0191818923FA0166
:1013E0008183A50143C0261937094809590970CFDF
:1013F000F5016183B601260D371D481D591D1901E0
:101400002A019DCF6B0120E030E040E050E050CF5A
:10141000D201C101B695A7959795879521E030E057
:1014200040E050E02222332244225522282A392A41
:101430004A2A5B2AF5012482358246825782089423
:10144000C11CD11CD382C282A50110C09095819588
:101450009F4F24CF81E0F5018183B60150954095DF
:10146000309521953F4F4F4F5F4F37CFCA01E2E193
:10147000CDB7DEB70C94A20EA0E2B0E0E2E4FAE051
:101480000C94940EDC01CB01898F9A8FAB8FBC8FAB
:101490002D8F3E8F4F8F58A3BE016F5F7F4FCE01C0
:1014A00049960E94990D8E01075F1F4FB801CE012A
:1014B0004D960E94990DAE014F5E5F4FB801CE016F
:1014C00001960E9418090E94B10CDC01CB01BC01FD
:1014D000CD01E4E0A0960C94B00EA0E2B0E0E3E70A
:1014E000FAE00C94940EDC01CB01898F9A8FAB8FBC
:1014F000BC8F2D8F3E8F4F8F58A3BE016F5F7F4FE4
:10150000CE0149960E94990D8E01075F1F4FB801C9
:10151000CE014D960E94990D8A8591E089278A8790
:10152000AE014F5E5F4FB801CE0101960E941809CF
:101530000E94B10CDC01CB01BC01CD01E4E0A0961E
:101540000C94B00EA0E2B0E0E8EAFAE00C94860E4B
:10155000DC01CB01898F9A8FAB8FBC8F2D8F3E8F93
:101560004F8F58A3BE016F5F7F4FCE0149960E94F7
:10157000990D69E070E06C0F7D1FCE014D960E94C1
:10158000990DFE013196662477244301130124014D
:101590008981823098F09985923058F420E09181C9
:1015A0008A85981321E02A8769E070E06C0F7D1F1F
:1015B000D9C0843059F4923009F45BC020E09181A5
:1015C0008A85981321E02183BF01CCC0943009F4AF
:1015D0004DC0823099F3923009F3ED80FE800F8187
:1015E00018852D853E854F855889640153016FE12B
:1015F00070E00CC0220F331F441F551F169507952E
:10160000F794E7946150704077FD36C0D801C70168
:1016100081709070A070B070892BC9F080E090E06C
:10162000220E331E441E551E22163306440655064E
:1016300010F481E090E0AA2797FDA095BA2F8A0DBB
:101640009B1DAC1DBD1D680E791E8A1E9B1EAA0C1B
:10165000BB1CCC1CDD1C57FFCDCF81E090E0A0E08F
:10166000B0E0A82AB92ACA2ADB2AC4CF823009F0FE
:1016700095CF68E670E076C0228133818B859C85AA
:10168000280F391F2E5F3F4FA90160E091818A85A5
:10169000981361E06A8B97FE0FC02FC0CA010197B3
:1016A000AC019C01660C771C881C991C57FC41C03E
:1016B000220C331C441C551C90E0691690E07906FE
:1016C00090E0890690E4990648F33C8B2B8BD4017B
:1016D000C3018F779070A070B07080349105A10520
:1016E000B10581F16D8A7E8A8F8A988E83E0898B1D
:1016F00061E170E06C0F7D1F35C02F5F3F4FA90186
:10170000D401C30181709070A070B070892B61F01A
:10171000569447943794279480E090E0A0E0B0E896
:10172000282A392A4A2A5B2A9694879477946794C0
:10173000C3CF81E090E0A0E0B0E0682A792A8A2A4D
:101740009B2AB6CF67FC05C0211431044104510423
:1017500049F280E490E0A0E0B0E0680E791E8A1EB5
:101760009B1EC0CFCB010E94B10CDC01CB01BC01A0
:10177000CD01E2E1A0960C94A20EA8E1B0E0E3EC6A
:10178000FBE00C94940EDC01CB01898B9A8BAB8B24
:10179000BC8B2D8B3E8B4F8B588FBE016F5F7F4F65
:1017A000CE0141960E94990D8E01075F1F4FB8012F
:1017B000CE0145960E94990D8981823018F0898565
:1017C000823018F42FEF3FEF09C0B801CE01019627
:1017D0000E94130E282F332727FD3095C901E4E01E
:1017E00068960C94B00EA8E1B0E0E9EFFBE00C9431
:1017F000940EDC01CB01898B9A8BAB8BBC8B2D8B30
:101800003E8B4F8B588FBE016F5F7F4FCE0141964D
:101810000E94990D8E01075F1F4FB801CE014596BA
:101820000E94990D8981823018F08985823018F4E0
:101830002FEF3FEF09C0B801CE0101960E94130EB1
:10184000282F332727FD3095C901E4E068960C94D2
:10185000B00EA8E1B0E0EFE2FCE00C94940EDC01E5
:10186000CB01898B9A8BAB8BBC8B2D8B3E8B4F8B9B
:10187000588FBE016F5F7F4FCE0141960E94990D38
:101880008E01075F1F4FB801CE0145960E94990D4A
:101890008981823018F08985823018F421E030E0A7
:1018A00009C0B801CE0101960E94130E282F3327DC
:1018B00027FD3095C901E4E068960C94B00EACE0C9
:1018C000B0E0E5E6FCE00C94960EDC01CB018987E4
:1018D0009A87AB87BC87BE016F5F7F4FCE010996A9
:1018E0000E94990D8981823011F0823028F460E0E5
:1018F00070E080E090E031C0843039F02B813C8191
:1019000037FDF5CF2F3131056CF08A81882329F01E
:1019100060E070E080E090E820C06FEF7FEF8FEF35
:101920009FE71BC08EE190E0821B930B2D813E81CF
:101930004F81588504C056954795379527958A95C8
:10194000D2F78A81882339F05095409530952195BA
:101950003F4F4F4F5F4FCA01B901E2E02C960C9404
:10196000B20EA0E0B0E0E7EBFCE00C948C0E882413
:1019700099245401DC01FC01248135814681578181
:101980008181082F112760E070E08C91823020F473
:101990006FEF70E04061A4C0843009F464C082300D
:1019A00009F463C0211531054105510509F498C0BA
:1019B000FD0182819381FFEF82389F070CF050C0B8
:1019C000A2E8EA2EAFEFFA2EE81AF90A8AE1E81641
:1019D000F1040CF06BC06B0181E090E0A0E0B0E09E
:1019E0000E2C04C0880F991FAA1FBB1F0A94D2F7A0
:1019F0000197A109B10982239323A423B52300975A
:101A0000A105B10519F0F1E0CF2ED12C04C05695F7
:101A1000479537952795EA94D2F7C601AA2797FDEF
:101A2000A095BA2F282B392B4A2B5B2BDA01C90141
:101A30008F779070A070B07080349105A105B105CA
:101A4000D1F1215C3F4F4F4F5F4F2030E0E03E0728
:101A5000E0E04E07E0E45E0708F161E070E01EC0E0
:101A6000803891053CF06FEF70E020E030E040E01E
:101A700050E036C0BC0161587F4FDA01C9018F7751
:101A80009070A070B07080349105A105B105D1F0BF
:101A9000215C3F4F4F4F5F4F57FD1BC097E056955E
:101AA0004795379527959A95D1F71AC020E030E0F1
:101AB00040E050E0BBCF27FFC8CF205C3F4F4F4FE7
:101AC0005F4FC3CF27FFE8CF205C3F4F4F4F5F4FA3
:101AD000E3CF56954795379527956F5F7F4FDECFBC
:101AE000822E932E942F9F778A2D8078A82EA92A54
:101AF000962F9795992797958A2D8F77A82EA92AA3
:101B000076956795962F9F778B2D8078B82EB92A7A
:101B1000902F9795992797958B2D8F77B82EB92A67
:101B2000D501C401BC01CD01ECE0CDB7DEB70C940A
:101B3000A80ECF93DF93FC01DB014081518122810C
:101B4000622F6F7770E0221F2227221F9381892F37
:101B5000880F822B282F3327991F9927991FED0172
:101B600099832115310541F4411551056105710530
:101B7000E1F482E08C9354C02F3F310509F441C059
:101B80002F573040FD013383228383E08C9387E01D
:101B9000440F551F661F771F8A95D1F77064ED01BA
:101BA0004C835D836E837F833BC022E83FEFF90166
:101BB000C7E0440F551F661F771FCA95D1F783E012
:101BC0008C93403080E0580780E0680780E4780715
:101BD00078F4440F551F661F771F21503040F901DC
:101BE0004030C0E05C07C0E06C07C0E47C0788F3CD
:101BF000ED01FB83EA83FD0144835583668377838C
:101C00000FC0411551056105710519F484E08C93ED
:101C100007C064FF03C081E08C93C1CF1C92BFCF8B
:101C2000DF91CF9108950F931F93CF93DF93FC0122
:101C3000DB018081823018F09C91923018F461E0D1
:101C400070E05EC08430C1F0843001F1943009F45A
:101C500047C0823009F44BC0823009F44EC0923044
:101C6000A9F04181ED0189814817B9F0442389F039
:101C70008FEF9FEFBC0144C0943031F7EB018981B5
:101C8000682F77278181681B71093AC08181882379
:101C900079F781E090E0BC0133C022813381ED010E
:101CA0008A819B81821793070CF3281739079CF0D0
:101CB0000481158126813781FD01648175818681CA
:101CC0009781601771078207930780F2061717073D
:101CD0002807390778F4442359F281E090E0DBCFFC
:101CE000FD018181882321F281E090E0D4CF923000
:101CF00009F0B2CF60E070E003C0ED018981F2CF5E
:101D0000CB01DF91CF911F910F9108952F923F92B8
:101D10004F925F926F927F928F929F92AF92BF92FB
:101D2000CF92DF92EF92FF920F931F93CF93DF93A7
:101D3000CDB7DEB7CA1BDB0B0FB6F894DEBF0FBE04
:101D4000CDBF09942A88398848885F846E847D8451
:101D50008C849B84AA84B984C884DF80EE80FD8053
:101D60000C811B81AA81B981CE0FD11D0FB6F894C9
:0A1D7000DEBF0FBECDBFED010895E8
:101D7A001070F8F8F870010100000000000000007F
:00000001FF
